:04000000B1EF0CF060
:10100000004E6F742052756E6E696E670025690020
:0110100000DF
:1010120026EC0DF0290E336E4A0E346EABEC0AF05C
:101022004A04D8A417EF08F019EF08F01AEF08F0F5
:10103200472A4A504918D8B421EF08F023EF08F0A4
:101042000BEF08F04AC049F04904D8A42BEF08F08E
:101052002DEF08F077EF08F04850D8A433EF08F0EE
:1010620035EF08F077EF08F0010E486E2C0E346E63
:101072007FEC0CF01F0E366E010E376EBAEC0BF0E1
:101082001F0E366E1C0E376EBAEC0BF01F0E406E42
:10109200050E416E010E426E060E436E5AEC0CF0C6
:1010A200020E466E860E456E990EE82EFED7452E2E
:1010B200FCD7462EFAD700001F0E366E080E376E8A
:1010C200BAEC0BF0020E466E860E456E990EE82EB5
:1010D200FED7452EFCD7462EFAD700001F0E366EDD
:1010E2000C0E376EBAEC0BF00BEF08F04904D8A4E3
:1010F2007DEF08F07FEF08F0A5EF08F04804D8A4D0
:1011020085EF08F087EF08F0A5EF08F0000E486EB3
:101112002C0E346E98EC0CF01F0E366E010E376EEC
:10112200BAEC0BF01F0E366E1C0E376EBAEC0BF0DB
:101132001F0E406E010E416E010E426E030E436E93
:101142005AEC0CF051EF08F00BEF08F000EF00F052
:101152002D50D8B4AFEF08F0B1EF08F0CFEF08F0A0
:101162002D50D96EDA6ADF30E832E832070B2E6E84
:10117200080E2E60BFEF08F0C1EF08F0CFEF08F0C5
:101182002D50D96EDA6ADF50070B2E6E040E2E64D4
:10119200CDEF08F0CFEF08F024EF09F03AEF09F0B5
:1011A2002D50D96EDA6ADF30E832E832070B2E6E44
:1011B200010E2F6E2E2AE0EF08F0D8902F362E2E39
:1011C200DEEF08F02D50D96EDA6ADF50070B020D00
:1011D200F350150FD96EDA6ADECF30F0DDCF31F081
:1011E20030C0D9FF31C0DAFF2F50DF12CFEF08F045
:1011F2002D50D96EDA6ADF30E832E832070B2E6EF4
:10120200010E2F6E2E2A08EF09F0D8902F362E2EBF
:1012120006EF09F02F50FF0A306E2D50D96EDA6AB0
:10122200DF50070B020DF350150FD96EDA6ADECFCD
:1012320031F0DDCF32F031C0D9FF32C0DAFF3050A9
:10124200DF16CFEF08F02D50D96EDA6ADFBC2CEF33
:1012520009F02FEF09F0010E30EF09F0000E000A3D
:10126200D8B4F9EF08F0010AD8B4D1EF08F0CFEF03
:1012720008F0010E12002D50D8B442EF09F044EFED
:1012820009F062EF09F02D50D96EDA6ADF30E832E8
:10129200E832070B2F6E080E2F6052EF09F054EF61
:1012A20009F062EF09F02D50D96EDA6ADF50070BB0
:1012B2002F6E040E2F6460EF09F062EF09F0B7EFB2
:1012C20009F0CCEF09F02D50D96EDA6ADF30E8323E
:1012D200E832070B2F6E010E306E2F2A73EF09F0E2
:1012E200D89030362F2E71EF09F03050FF0A316E50
:1012F2002D50D96EDA6ADF50070B020DF350010F41
:10130200D96EDA6ADECF32F0DDCF33F032C0D9FFE8
:1013120033C0DAFF3150DF1662EF09F02D50D96E7B
:10132200DA6ADF30E832E832070B2F6E010E306ED8
:101332002F2A9EEF09F0D89030362F2E9CEF09F01D
:101342002D50D96EDA6ADF50070B020DF350010FF0
:10135200D96EDA6ADECF31F0DDCF32F031C0D9FF9B
:1013620032C0DAFF3050DF1262EF09F02E502F6EDA
:10137200306A3050000AD8B4C1EF09F062EF09F0C8
:101382002F50000AD8B464EF09F0010AD8B48FEFE5
:1013920009F062EF09F0010E12003C50D8A4D4EF1C
:1013A20009F0D6EF09F0D8EF09F04EEF0AF03CC091
:1013B20034F043EC0BF0406E3C28346E43EC0BF0FF
:1013C2004016000E3F6E3C503F24020F346E43EC39
:1013D2000BF040163F2A070E3F64F2EF09F0F4EFDC
:1013E20009F0E4EF09F0030E3E6E080E3D6E770E33
:1013F200E82EFED73D2EFCD73E2EFAD700003CC089
:1014020036F0380E376EBAEC0BF04016820E3D6E97
:10141200DE0EE82EFED73D2EFCD73CC036F0380E4D
:10142200376EBAEC0BF04016040E3D6EE40EE82E59
:10143200FED73D2EFCD700D03CC036F0380E376EBA
:10144200BAEC0BF040163CC036F0010E376EBAEC27
:101452000BF040163CC036F0020E376EBAEC0BF0C1
:1014620040163CC036F0060E376EBAEC0BF0401652
:101472003CC036F00C0E376EBAEC0BF040163CC096
:1014820036F0380E376EBAEC0BF040163CC036F030
:10149200800E376EBAEC0BF0401612002D50D8B405
:1014A20055EF0AF057EF0AF07DEF0AF02E50D8B44C
:1014B2005DEF0AF05FEF0AF07DEF0AF02D50D96E72
:1014C200DA6ADF30E832E832070B2F6E080E2F603F
:1014D2006DEF0AF06FEF0AF07DEF0AF02D50D96E32
:1014E200DA6ADF50070B2F6E040E2F647BEF0AF0CF
:1014F2007DEF0AF07FEF0AF0A9EF0AF02E50D96EC5
:10150200DA6A2D50E16EE26AE730E832E832070B20
:101512002F6E2D50E16EE26AE750070B020DF35079
:101522000B0FE16EE26AE6CF30F0E5CF31F030C06A
:10153200E1FF31C0E2FFE750326E2F2AA3EF0AF03B
:10154200D89032322F2EA1EF0AF03250010BDF6E0B
:10155200010E12003350D8B4B1EF0AF0B3EF0AF023
:10156200BBEF0AF03450D8A4B9EF0AF0BBEF0AF08F
:10157200BDEF0AF0FEEF0AF0000E366E33C02DF01A
:10158200360E2E6E4FEC0AF03350D96EDA6A020E26
:10159200D926DE04D8A4D0EF0AF0D2EF0AF0E7EFA2
:1015A2000AF03604D8A4D8EF0AF0DAEF0AF0E1EF35
:1015B2000AF03450D96EDA6A010EDF6EBBEF0AF020
:1015C2003450D96EDA6ADF6ABBEF0AF03350D96E53
:1015D200DA6A020ED926DF50D8A4F2EF0AF0F4EF4D
:1015E2000AF0FEEF0AF03604D8A4FAEF0AF0FCEF94
:1015F2000AF0DAEF0AF0E1EF0AF012003E062EEFEF
:101602000BF03CC036F03E50800F376EBAEC0BF058
:101612003F6E41EF0BF03CC036F03E50C00F376ECC
:10162200BAEC0BF03F6E41EF0BF03CC036F03E508F
:10163200940F376EBAEC0BF03F6E41EF0BF03CC0EB
:1016420036F03E50D40F376EBAEC0BF03F6E41EFDE
:101652000BF0010E3F6E41EF0BF03D50010AD8B482
:1016620002EF0BF0030AD8B40CEF0BF0010AD8B466
:1016720016EF0BF0070AD8B420EF0BF02AEF0BF0AD
:101682003F5012003450D8B449EF0BF04BEF0BF03F
:1016920069EF0BF03450D96EDA6ADF30E832E832A3
:1016A200070B356E080E356059EF0BF05BEF0BF050
:1016B20069EF0BF03450D96EDA6ADF50070B356EE2
:1016C200040E356467EF0BF069EF0BF06DEF0BF072
:1016D200010E366E7EEF0BF034C02DF0A9EC08F04F
:1016E200366E34C02DF03450D96EDA6A000EDFBE89
:1016F200010E2E6E3CEC09F03616365012003650B2
:10170200D8A486EF0BF088EF0BF08CEF0BF0010EF4
:101712003A6EB8EF0BF036C02DF0010E2E6E3CEC97
:1017220009F03A6E000E3B6E36503B24020F2D6ECE
:101732003BC038F037C039F0382AA2EF0BF0D8900E
:101742003932382EA0EF0BF03950010B2E6E3CECE3
:1017520009F03A163B2A070E3B64B2EF0BF0B4EFE6
:101762000BF095EF0BF036C034F0F5EC0CF03A507C
:1017720012003650D8A4C0EF0BF0C2EF0BF0C6EF48
:101782000BF0010E3A6EF2EF0BF036C02DF0000EA8
:101792002E6E3CEC09F03A6E000E3B6E36503B2446
:1017A200020F2D6E3BC038F037C039F0382ADCEF1B
:1017B2000BF0D8903932382EDAEF0BF03950010B9A
:1017C2002E6E3CEC09F03A163B2A070E3B64ECEF16
:1017D2000BF0EEEF0BF0CFEF0BF036C034F0F5EC80
:1017E2000CF03A501200010E3E6E3C50D8A4FCEFB1
:1017F2000BF0FEEF0BF018EF0CF03D50D8A404EF05
:101802000CF006EF0CF018EF0CF0010E3E6E27EF15
:101812000CF03CC036F03DC0F6FF100EF76EF86AD1
:101822000800F5CF37F080EC0BF03E163D2A3DC0A4
:10183200F6FF100EF76EF86A0800F5500009D8A4FA
:1018420025EF0CF027EF0CF00AEF0CF03E501200DF
:101852002D50D96EDA6ADF9C2E50D96EDA6A2D507D
:10186200E16EE26AE79EDFAC38EF0CF0E78E2E50B5
:10187200D96EDA6ADF30E832E832070B2F6E2D506C
:10188200D96EDA6A2F462F462F46DF502F18C70B24
:101892002F18DF6E2E50D96EDA6ADF50070B2F6ECB
:1018A2002D50D96EDA6ADF502F18F80B2F18DF6E21
:1018B2001200010E446E4050D8A462EF0CF064EFA7
:1018C2000CF06EEF0CF04150D8A46AEF0CF06CEF04
:1018D2000CF06EEF0CF07EEF0CF040C03CF042C01A
:1018E2003DF043C03EF0FFEC0AF0441640C03CF02D
:1018F20041C03DF0F4EC0BF0441612003450D8A471
:1019020085EF0CF087EF0CF089EF0CF097EF0CF0FD
:10191200350E2D6E34C02EF029EC0CF0350E2D6EE6
:10192200010E2E6E3CEC09F087EF0CF012003450E1
:10193200D8A49EEF0CF0A0EF0CF0A2EF0CF0B0EFE9
:101942000CF0350E2D6E34C02EF029EC0CF0350E55
:101952002D6E000E2E6E3CEC09F0A0EF0CF0120082
:10196200BE0EF66E190EF76E000EF86E00EE01F066
:1019720010EE2CF00900F5CFEEFFE550E150FAE150
:101982004A6A496A486A476A000109EF08F0375013
:10199200D8A4CEEF0CF0D0EF0CF0D2EF0CF0DEEFCB
:1019A2000CF0380E2D6E37C02EF029EC0CF0380EEC
:1019B200346E43EC0BF0D0EF0CF01200890F8A0F5B
:1019C2008B0F8C0F8D0F800F810F820F830F840F6F
:1019D200920F930F940F950F960F020A121A222A52
:1019E200323A030B1B000123010E356E34282D6E93
:1019F200010E2E6E3CEC09F03516210EE82EFED7B4
:101A0200000034282D6E000E2E6E3CEC09F03516C7
:101A120012003350D8A410EF0DF012EF0DF014EFB6
:101A22000DF018EF0DF033C02DF0A9EC08F0120004
:101A32001F0E3C6ECEEC09F0290E336E0AEC0DF04F
:101A42002C0E376EC8EC0CF0120019EC0DF01200DF
:00000001FF
